{
  "_format": "hh-sol-artifact-1",
  "contractName": "GrantPaymentModule",
  "sourceName": "contracts/GrantPaymentModule.sol",
  "abi": [
    {
      "inputs": [],
      "stateMutability": "nonpayable",
      "type": "constructor"
    },
    {
      "inputs": [],
      "name": "DOMAIN_SEPARATOR_TYPEHASH",
      "outputs": [
        {
          "internalType": "bytes32",
          "name": "",
          "type": "bytes32"
        }
      ],
      "stateMutability": "view",
      "type": "function"
    },
    {
      "inputs": [],
      "name": "GRANT_TRANSFER_TYPEHASH",
      "outputs": [
        {
          "internalType": "bytes32",
          "name": "",
          "type": "bytes32"
        }
      ],
      "stateMutability": "view",
      "type": "function"
    },
    {
      "inputs": [],
      "name": "NAME",
      "outputs": [
        {
          "internalType": "string",
          "name": "",
          "type": "string"
        }
      ],
      "stateMutability": "view",
      "type": "function"
    },
    {
      "inputs": [],
      "name": "VERSION",
      "outputs": [
        {
          "internalType": "string",
          "name": "",
          "type": "string"
        }
      ],
      "stateMutability": "view",
      "type": "function"
    },
    {
      "inputs": [
        {
          "internalType": "address[]",
          "name": "_delegates",
          "type": "address[]"
        }
      ],
      "name": "addDelegates",
      "outputs": [],
      "stateMutability": "nonpayable",
      "type": "function"
    },
    {
      "inputs": [
        {
          "internalType": "address",
          "name": "",
          "type": "address"
        }
      ],
      "name": "approvedDelegates",
      "outputs": [
        {
          "internalType": "bool",
          "name": "",
          "type": "bool"
        }
      ],
      "stateMutability": "view",
      "type": "function"
    },
    {
      "inputs": [
        {
          "internalType": "address",
          "name": "_granteeAddress",
          "type": "address"
        }
      ],
      "name": "deleteGrant",
      "outputs": [],
      "stateMutability": "nonpayable",
      "type": "function"
    },
    {
      "inputs": [
        {
          "internalType": "address",
          "name": "_granteeAddress",
          "type": "address"
        }
      ],
      "name": "getGrant",
      "outputs": [
        {
          "components": [
            {
              "internalType": "address",
              "name": "delegate",
              "type": "address"
            },
            {
              "internalType": "uint96",
              "name": "amount",
              "type": "uint96"
            },
            {
              "internalType": "uint96",
              "name": "distributedAmount",
              "type": "uint96"
            },
            {
              "internalType": "uint96",
              "name": "milestoneAmount",
              "type": "uint96"
            },
            {
              "internalType": "uint96",
              "name": "reachedMilestoneAmount",
              "type": "uint96"
            },
            {
              "internalType": "string",
              "name": "grantRefID",
              "type": "string"
            },
            {
              "internalType": "uint16",
              "name": "nonce",
              "type": "uint16"
            }
          ],
          "internalType": "struct GrantPaymentModule.Grant",
          "name": "",
          "type": "tuple"
        }
      ],
      "stateMutability": "view",
      "type": "function"
    },
    {
      "inputs": [
        {
          "internalType": "address",
          "name": "",
          "type": "address"
        }
      ],
      "name": "grants",
      "outputs": [
        {
          "internalType": "address",
          "name": "delegate",
          "type": "address"
        },
        {
          "internalType": "uint96",
          "name": "amount",
          "type": "uint96"
        },
        {
          "internalType": "uint96",
          "name": "distributedAmount",
          "type": "uint96"
        },
        {
          "internalType": "uint96",
          "name": "milestoneAmount",
          "type": "uint96"
        },
        {
          "internalType": "uint96",
          "name": "reachedMilestoneAmount",
          "type": "uint96"
        },
        {
          "internalType": "string",
          "name": "grantRefID",
          "type": "string"
        },
        {
          "internalType": "uint16",
          "name": "nonce",
          "type": "uint16"
        }
      ],
      "stateMutability": "view",
      "type": "function"
    },
    {
      "inputs": [],
      "name": "owner",
      "outputs": [
        {
          "internalType": "address",
          "name": "",
          "type": "address"
        }
      ],
      "stateMutability": "view",
      "type": "function"
    },
    {
      "inputs": [
        {
          "internalType": "address",
          "name": "_granteeAddress",
          "type": "address"
        },
        {
          "internalType": "address",
          "name": "_delegate",
          "type": "address"
        },
        {
          "internalType": "uint96",
          "name": "_amount",
          "type": "uint96"
        },
        {
          "internalType": "uint96",
          "name": "_milestoneAmount",
          "type": "uint96"
        },
        {
          "internalType": "string",
          "name": "_grantRefID",
          "type": "string"
        }
      ],
      "name": "setGrant",
      "outputs": [],
      "stateMutability": "nonpayable",
      "type": "function"
    },
    {
      "inputs": [
        {
          "internalType": "address",
          "name": "_granteeAddress",
          "type": "address"
        },
        {
          "internalType": "uint96",
          "name": "_currentMilestone",
          "type": "uint96"
        },
        {
          "internalType": "address",
          "name": "_delegate",
          "type": "address"
        }
      ],
      "name": "updateGrant",
      "outputs": [],
      "stateMutability": "nonpayable",
      "type": "function"
    },
    {
      "inputs": [
        {
          "internalType": "address",
          "name": "_granteeAddress",
          "type": "address"
        },
        {
          "internalType": "address",
          "name": "_newDelegate",
          "type": "address"
        }
      ],
      "name": "updateGrantDelegate",
      "outputs": [],
      "stateMutability": "nonpayable",
      "type": "function"
    }
  ],
  "bytecode": "0x608060405234801561001057600080fd5b50336000806101000a81548173ffffffffffffffffffffffffffffffffffffffff021916908373ffffffffffffffffffffffffffffffffffffffff1602179055506120d3806100606000396000f3fe608060405234801561001057600080fd5b50600436106100cf5760003560e01c8063b869cea31161008c578063eb36602b11610066578063eb36602b1461021a578063eb70037314610236578063f8d3082614610252578063ffa1ad741461026e576100cf565b8063b869cea314610196578063bf31dbf4146101cc578063e1ad0377146101fc576100cf565b80631db61b54146100d457806346015978146100f2578063736ffad4146101225780638da5cb5b1461013e57806390e1ebda1461015c578063a3f4df7e14610178575b600080fd5b6100dc61028c565b6040516100e99190611c01565b60405180910390f35b61010c60048036038101906101079190611665565b6102b0565b6040516101199190611be6565b60405180910390f35b61013c6004803603810190610137919061168e565b6102d0565b005b610146610509565b6040516101539190611b55565b60405180910390f35b610176600480360381019061017191906116ca565b61052d565b005b6101806107ef565b60405161018d9190611c1c565b60405180910390f35b6101b060048036038101906101ab9190611665565b610828565b6040516101c39796959493929190611b70565b60405180910390f35b6101e660048036038101906101e19190611665565b610980565b6040516101f39190611d1e565b60405180910390f35b610204610bd9565b6040516102119190611c01565b60405180910390f35b610234600480360381019061022f9190611759565b610bfd565b005b610250600480360381019061024b91906117a8565b610e7d565b005b61026c60048036038101906102679190611665565b610fc6565b005b610276611161565b6040516102839190611c1c565b60405180910390f35b7fe29ae391d56380108ce928315a6cca9ba356584f5bc9cd9430d7208954f3a93781565b60026020528060005260406000206000915054906101000a900460ff1681565b81600160008273ffffffffffffffffffffffffffffffffffffffff1673ffffffffffffffffffffffffffffffffffffffff16815260200190815260200160002060000160009054906101000a900473ffffffffffffffffffffffffffffffffffffffff1673ffffffffffffffffffffffffffffffffffffffff163373ffffffffffffffffffffffffffffffffffffffff1614806103b8575060008054906101000a900473ffffffffffffffffffffffffffffffffffffffff1673ffffffffffffffffffffffffffffffffffffffff163373ffffffffffffffffffffffffffffffffffffffff16145b6103f7576040517f08c379a00000000000000000000000000000000000000000000000000000000081526004016103ee90611c3e565b60405180910390fd5b600260008373ffffffffffffffffffffffffffffffffffffffff1673ffffffffffffffffffffffffffffffffffffffff16815260200190815260200160002060009054906101000a900460ff16610483576040517f08c379a000000000000000000000000000000000000000000000000000000000815260040161047a90611cde565b60405180910390fd5b81600160008573ffffffffffffffffffffffffffffffffffffffff1673ffffffffffffffffffffffffffffffffffffffff16815260200190815260200160002060000160006101000a81548173ffffffffffffffffffffffffffffffffffffffff021916908373ffffffffffffffffffffffffffffffffffffffff160217905550505050565b60008054906101000a900473ffffffffffffffffffffffffffffffffffffffff1681565b83600260008273ffffffffffffffffffffffffffffffffffffffff1673ffffffffffffffffffffffffffffffffffffffff16815260200190815260200160002060009054906101000a900460ff166105ba576040517f08c379a00000000000000000000000000000000000000000000000000000000081526004016105b190611c9e565b60405180910390fd5b6040518060e001604052808673ffffffffffffffffffffffffffffffffffffffff168152602001856bffffffffffffffffffffffff16815260200160006bffffffffffffffffffffffff168152602001846bffffffffffffffffffffffff16815260200160006bffffffffffffffffffffffff168152602001838152602001600061ffff16815250600160008873ffffffffffffffffffffffffffffffffffffffff1673ffffffffffffffffffffffffffffffffffffffff16815260200190815260200160002060008201518160000160006101000a81548173ffffffffffffffffffffffffffffffffffffffff021916908373ffffffffffffffffffffffffffffffffffffffff16021790555060208201518160000160146101000a8154816bffffffffffffffffffffffff02191690836bffffffffffffffffffffffff16021790555060408201518160010160006101000a8154816bffffffffffffffffffffffff02191690836bffffffffffffffffffffffff160217905550606082015181600101600c6101000a8154816bffffffffffffffffffffffff02191690836bffffffffffffffffffffffff16021790555060808201518160020160006101000a8154816bffffffffffffffffffffffff02191690836bffffffffffffffffffffffff16021790555060a08201518160030190805190602001906107c09291906113cb565b5060c08201518160040160006101000a81548161ffff021916908361ffff160217905550905050505050505050565b6040518060400160405280600d81526020017f4752414e5453204d6f64756c650000000000000000000000000000000000000081525081565b60016020528060005260406000206000915090508060000160009054906101000a900473ffffffffffffffffffffffffffffffffffffffff16908060000160149054906101000a90046bffffffffffffffffffffffff16908060010160009054906101000a90046bffffffffffffffffffffffff169080600101600c9054906101000a90046bffffffffffffffffffffffff16908060020160009054906101000a90046bffffffffffffffffffffffff16908060030180546108e990611f27565b80601f016020809104026020016040519081016040528092919081815260200182805461091590611f27565b80156109625780601f1061093757610100808354040283529160200191610962565b820191906000526020600020905b81548152906001019060200180831161094557829003601f168201915b5050505050908060040160009054906101000a900461ffff16905087565b610988611451565b600160008373ffffffffffffffffffffffffffffffffffffffff1673ffffffffffffffffffffffffffffffffffffffff1681526020019081526020016000206040518060e00160405290816000820160009054906101000a900473ffffffffffffffffffffffffffffffffffffffff1673ffffffffffffffffffffffffffffffffffffffff1673ffffffffffffffffffffffffffffffffffffffff1681526020016000820160149054906101000a90046bffffffffffffffffffffffff166bffffffffffffffffffffffff166bffffffffffffffffffffffff1681526020016001820160009054906101000a90046bffffffffffffffffffffffff166bffffffffffffffffffffffff166bffffffffffffffffffffffff16815260200160018201600c9054906101000a90046bffffffffffffffffffffffff166bffffffffffffffffffffffff166bffffffffffffffffffffffff1681526020016002820160009054906101000a90046bffffffffffffffffffffffff166bffffffffffffffffffffffff166bffffffffffffffffffffffff168152602001600382018054610b3090611f27565b80601f0160208091040260200160405190810160405280929190818152602001828054610b5c90611f27565b8015610ba95780601f10610b7e57610100808354040283529160200191610ba9565b820191906000526020600020905b815481529060010190602001808311610b8c57829003601f168201915b505050505081526020016004820160009054906101000a900461ffff1661ffff1661ffff16815250509050919050565b7fe3b859addf4ff702db3c81f356a5115754a64f22dd16b6175f26b4b444aac1ec81565b80600260008273ffffffffffffffffffffffffffffffffffffffff1673ffffffffffffffffffffffffffffffffffffffff16815260200190815260200160002060009054906101000a900460ff16610c8a576040517f08c379a0000000000000000000000000000000000000000000000000000000008152600401610c8190611c9e565b60405180910390fd5b6000600160008673ffffffffffffffffffffffffffffffffffffffff1673ffffffffffffffffffffffffffffffffffffffff16815260200190815260200160002090508060000160009054906101000a900473ffffffffffffffffffffffffffffffffffffffff1673ffffffffffffffffffffffffffffffffffffffff168373ffffffffffffffffffffffffffffffffffffffff1614610d5f576040517f08c379a0000000000000000000000000000000000000000000000000000000008152600401610d5690611cfe565b60405180910390fd5b836bffffffffffffffffffffffff168160020160009054906101000a90046bffffffffffffffffffffffff166bffffffffffffffffffffffff1614610dd257838160020160006101000a8154816bffffffffffffffffffffffff02191690836bffffffffffffffffffffffff1602179055505b8273ffffffffffffffffffffffffffffffffffffffff168160000160009054906101000a900473ffffffffffffffffffffffffffffffffffffffff1673ffffffffffffffffffffffffffffffffffffffff1614610e6d57828160000160006101000a81548173ffffffffffffffffffffffffffffffffffffffff021916908373ffffffffffffffffffffffffffffffffffffffff1602179055505b610e768561119a565b5050505050565b60008054906101000a900473ffffffffffffffffffffffffffffffffffffffff1673ffffffffffffffffffffffffffffffffffffffff163373ffffffffffffffffffffffffffffffffffffffff1614610f0b576040517f08c379a0000000000000000000000000000000000000000000000000000000008152600401610f0290611cbe565b60405180910390fd5b60005b8151811015610fc257600160026000848481518110610f56577f4e487b7100000000000000000000000000000000000000000000000000000000600052603260045260246000fd5b602002602001015173ffffffffffffffffffffffffffffffffffffffff1673ffffffffffffffffffffffffffffffffffffffff16815260200190815260200160002060006101000a81548160ff0219169083151502179055508080610fba90611f59565b915050610f0e565b5050565b60008054906101000a900473ffffffffffffffffffffffffffffffffffffffff1673ffffffffffffffffffffffffffffffffffffffff163373ffffffffffffffffffffffffffffffffffffffff1614611054576040517f08c379a000000000000000000000000000000000000000000000000000000000815260040161104b90611cbe565b60405180910390fd5b600160008273ffffffffffffffffffffffffffffffffffffffff1673ffffffffffffffffffffffffffffffffffffffff168152602001908152602001600020600080820160006101000a81549073ffffffffffffffffffffffffffffffffffffffff02191690556000820160146101000a8154906bffffffffffffffffffffffff02191690556001820160006101000a8154906bffffffffffffffffffffffff021916905560018201600c6101000a8154906bffffffffffffffffffffffff02191690556002820160006101000a8154906bffffffffffffffffffffffff021916905560038201600061114791906114e0565b6004820160006101000a81549061ffff0219169055505050565b6040518060400160405280600581526020017f302e312e3000000000000000000000000000000000000000000000000000000081525081565b6000600160008373ffffffffffffffffffffffffffffffffffffffff1673ffffffffffffffffffffffffffffffffffffffff1681526020019081526020016000209050600081600101600c9054906101000a90046bffffffffffffffffffffffff168260000160149054906101000a90046bffffffffffffffffffffffff166112239190611e3c565b9050806bffffffffffffffffffffffff16471015611276576040517f08c379a000000000000000000000000000000000000000000000000000000000815260040161126d90611c7e565b60405180910390fd5b8160000160149054906101000a90046bffffffffffffffffffffffff166bffffffffffffffffffffffff16818360010160009054906101000a90046bffffffffffffffffffffffff166112c99190611dfa565b6bffffffffffffffffffffffff161115611318576040517f08c379a000000000000000000000000000000000000000000000000000000000815260040161130f90611c5e565b60405180910390fd5b8273ffffffffffffffffffffffffffffffffffffffff166108fc826bffffffffffffffffffffffff169081150290604051600060405180830381858888f1935050505015801561136c573d6000803e3d6000fd5b50808260010160008282829054906101000a90046bffffffffffffffffffffffff166113989190611dfa565b92506101000a8154816bffffffffffffffffffffffff02191690836bffffffffffffffffffffffff160217905550505050565b8280546113d790611f27565b90600052602060002090601f0160209004810192826113f95760008555611440565b82601f1061141257805160ff1916838001178555611440565b82800160010185558215611440579182015b8281111561143f578251825591602001919060010190611424565b5b50905061144d9190611520565b5090565b6040518060e00160405280600073ffffffffffffffffffffffffffffffffffffffff16815260200160006bffffffffffffffffffffffff16815260200160006bffffffffffffffffffffffff16815260200160006bffffffffffffffffffffffff16815260200160006bffffffffffffffffffffffff16815260200160608152602001600061ffff1681525090565b5080546114ec90611f27565b6000825580601f106114fe575061151d565b601f01602090049060005260206000209081019061151c9190611520565b5b50565b5b80821115611539576000816000905550600101611521565b5090565b600061155061154b84611d71565b611d40565b9050808382526020820190508285602086028201111561156f57600080fd5b60005b8581101561159f578161158588826115e7565b845260208401935060208301925050600181019050611572565b5050509392505050565b60006115bc6115b784611d9d565b611d40565b9050828152602081018484840111156115d457600080fd5b6115df848285611ee5565b509392505050565b6000813590506115f68161206f565b92915050565b600082601f83011261160d57600080fd5b813561161d84826020860161153d565b91505092915050565b600082601f83011261163757600080fd5b81356116478482602086016115a9565b91505092915050565b60008135905061165f81612086565b92915050565b60006020828403121561167757600080fd5b6000611685848285016115e7565b91505092915050565b600080604083850312156116a157600080fd5b60006116af858286016115e7565b92505060206116c0858286016115e7565b9150509250929050565b600080600080600060a086880312156116e257600080fd5b60006116f0888289016115e7565b9550506020611701888289016115e7565b945050604061171288828901611650565b935050606061172388828901611650565b925050608086013567ffffffffffffffff81111561174057600080fd5b61174c88828901611626565b9150509295509295909350565b60008060006060848603121561176e57600080fd5b600061177c868287016115e7565b935050602061178d86828701611650565b925050604061179e868287016115e7565b9150509250925092565b6000602082840312156117ba57600080fd5b600082013567ffffffffffffffff8111156117d457600080fd5b6117e0848285016115fc565b91505092915050565b6117f281611e6d565b82525050565b61180181611e6d565b82525050565b61181081611e7f565b82525050565b61181f81611e8b565b82525050565b600061183082611dcd565b61183a8185611dd8565b935061184a818560208601611ef4565b6118538161205e565b840191505092915050565b600061186982611dcd565b6118738185611de9565b9350611883818560208601611ef4565b61188c8161205e565b840191505092915050565b60006118a4603183611de9565b91507f4e6f7420617574686f72697a65643a206d7573742062652063757272656e742060008301527f64656c6567617465206f72206f776e65720000000000000000000000000000006020830152604082019050919050565b600061190a601c83611de9565b91507f5472616e736665722065786365656473206772616e74206c696d6974000000006000830152602082019050919050565b600061194a602083611de9565b91507f4e6f7420656e6f7567682066756e647320696e2074686520636f6e74726163746000830152602082019050919050565b600061198a601883611de9565b91507f4e6f7420616e20617070726f7665642064656c656761746500000000000000006000830152602082019050919050565b60006119ca601d83611de9565b91507f4e6f7420617574686f72697a65643a206d757374206265206f776e65720000006000830152602082019050919050565b6000611a0a601c83611de9565b91507f4e65772064656c6567617465206973206e6f7420617070726f766564000000006000830152602082019050919050565b6000611a4a600e83611de9565b91507f4e6f7420617574686f72697a65640000000000000000000000000000000000006000830152602082019050919050565b600060e083016000830151611a9560008601826117e9565b506020830151611aa86020860182611b37565b506040830151611abb6040860182611b37565b506060830151611ace6060860182611b37565b506080830151611ae16080860182611b37565b5060a083015184820360a0860152611af98282611825565b91505060c0830151611b0e60c0860182611b19565b508091505092915050565b611b2281611e95565b82525050565b611b3181611e95565b82525050565b611b4081611ecd565b82525050565b611b4f81611ecd565b82525050565b6000602082019050611b6a60008301846117f8565b92915050565b600060e082019050611b85600083018a6117f8565b611b926020830189611b46565b611b9f6040830188611b46565b611bac6060830187611b46565b611bb96080830186611b46565b81810360a0830152611bcb818561185e565b9050611bda60c0830184611b28565b98975050505050505050565b6000602082019050611bfb6000830184611807565b92915050565b6000602082019050611c166000830184611816565b92915050565b60006020820190508181036000830152611c36818461185e565b905092915050565b60006020820190508181036000830152611c5781611897565b9050919050565b60006020820190508181036000830152611c77816118fd565b9050919050565b60006020820190508181036000830152611c978161193d565b9050919050565b60006020820190508181036000830152611cb78161197d565b9050919050565b60006020820190508181036000830152611cd7816119bd565b9050919050565b60006020820190508181036000830152611cf7816119fd565b9050919050565b60006020820190508181036000830152611d1781611a3d565b9050919050565b60006020820190508181036000830152611d388184611a7d565b905092915050565b6000604051905081810181811067ffffffffffffffff82111715611d6757611d6661202f565b5b8060405250919050565b600067ffffffffffffffff821115611d8c57611d8b61202f565b5b602082029050602081019050919050565b600067ffffffffffffffff821115611db857611db761202f565b5b601f19601f8301169050602081019050919050565b600081519050919050565b600082825260208201905092915050565b600082825260208201905092915050565b6000611e0582611ecd565b9150611e1083611ecd565b9250826bffffffffffffffffffffffff03821115611e3157611e30611fa2565b5b828201905092915050565b6000611e4782611ecd565b9150611e5283611ecd565b925082611e6257611e61611fd1565b5b828204905092915050565b6000611e7882611ea3565b9050919050565b60008115159050919050565b6000819050919050565b600061ffff82169050919050565b600073ffffffffffffffffffffffffffffffffffffffff82169050919050565b6000819050919050565b60006bffffffffffffffffffffffff82169050919050565b82818337600083830152505050565b60005b83811015611f12578082015181840152602081019050611ef7565b83811115611f21576000848401525b50505050565b60006002820490506001821680611f3f57607f821691505b60208210811415611f5357611f52612000565b5b50919050565b6000611f6482611ec3565b91507fffffffffffffffffffffffffffffffffffffffffffffffffffffffffffffffff821415611f9757611f96611fa2565b5b600182019050919050565b7f4e487b7100000000000000000000000000000000000000000000000000000000600052601160045260246000fd5b7f4e487b7100000000000000000000000000000000000000000000000000000000600052601260045260246000fd5b7f4e487b7100000000000000000000000000000000000000000000000000000000600052602260045260246000fd5b7f4e487b7100000000000000000000000000000000000000000000000000000000600052604160045260246000fd5b6000601f19601f8301169050919050565b61207881611e6d565b811461208357600080fd5b50565b61208f81611ecd565b811461209a57600080fd5b5056fea2646970667358221220e800ca866dec307b97b15004b60493073e26eb621bbd32db0db8f4ee9675e54464736f6c63430008000033",
  "linkReferences": {},
  "deployedLinkReferences": {}
}