{
  "address": "0x1c666c332258644e2f2ea53941ae19b7905a5e52",
  "abi": [
    {
      "inputs": [
        {
          "internalType": "address",
          "name": "_tokenAddress",
          "type": "address"
        }
      ],
      "stateMutability": "nonpayable",
      "type": "constructor"
    },
    {
      "anonymous": false,
      "inputs": [
        {
          "indexed": false,
          "internalType": "address",
          "name": "delegate",
          "type": "address"
        },
        {
          "indexed": false,
          "internalType": "address",
          "name": "grantee",
          "type": "address"
        },
        {
          "indexed": false,
          "internalType": "uint96",
          "name": "distributedAmount",
          "type": "uint96"
        },
        {
          "indexed": false,
          "internalType": "uint96",
          "name": "amount",
          "type": "uint96"
        },
        {
          "indexed": false,
          "internalType": "uint96",
          "name": "milestoneAmount",
          "type": "uint96"
        },
        {
          "indexed": false,
          "internalType": "uint96",
          "name": "reachedMilestoneAmount",
          "type": "uint96"
        },
        {
          "indexed": false,
          "internalType": "string",
          "name": "grantRefID",
          "type": "string"
        },
        {
          "indexed": false,
          "internalType": "enum Enum.GrantStatus",
          "name": "status",
          "type": "uint8"
        },
        {
          "indexed": false,
          "internalType": "uint16",
          "name": "nonce",
          "type": "uint16"
        }
      ],
      "name": "ExecuteGrantTransfer",
      "type": "event"
    },
    {
      "anonymous": false,
      "inputs": [
        {
          "indexed": false,
          "internalType": "string",
          "name": "grantRefID",
          "type": "string"
        },
        {
          "indexed": false,
          "internalType": "enum Enum.GrantStatus",
          "name": "status",
          "type": "uint8"
        }
      ],
      "name": "GrantCanceled",
      "type": "event"
    },
    {
      "anonymous": false,
      "inputs": [
        {
          "indexed": false,
          "internalType": "string",
          "name": "grantRefID",
          "type": "string"
        },
        {
          "indexed": false,
          "internalType": "address",
          "name": "delegate",
          "type": "address"
        },
        {
          "indexed": false,
          "internalType": "uint96",
          "name": "amount",
          "type": "uint96"
        },
        {
          "indexed": false,
          "internalType": "uint96",
          "name": "milestoneAmount",
          "type": "uint96"
        }
      ],
      "name": "GrantCreated",
      "type": "event"
    },
    {
      "anonymous": false,
      "inputs": [
        {
          "indexed": false,
          "internalType": "string",
          "name": "grantRefID",
          "type": "string"
        },
        {
          "indexed": false,
          "internalType": "enum Enum.GrantStatus",
          "name": "status",
          "type": "uint8"
        }
      ],
      "name": "GrantPayed",
      "type": "event"
    },
    {
      "anonymous": false,
      "inputs": [
        {
          "indexed": false,
          "internalType": "string",
          "name": "grantRefID",
          "type": "string"
        },
        {
          "indexed": false,
          "internalType": "uint96",
          "name": "distributedAmount",
          "type": "uint96"
        },
        {
          "indexed": false,
          "internalType": "uint96",
          "name": "reachedMilestoneAmount",
          "type": "uint96"
        }
      ],
      "name": "GrantUpdated",
      "type": "event"
    },
    {
      "inputs": [],
      "name": "DOMAIN_SEPARATOR_TYPEHASH",
      "outputs": [
        {
          "internalType": "bytes32",
          "name": "",
          "type": "bytes32"
        }
      ],
      "stateMutability": "view",
      "type": "function"
    },
    {
      "inputs": [],
      "name": "GRANT_TRANSFER_TYPEHASH",
      "outputs": [
        {
          "internalType": "bytes32",
          "name": "",
          "type": "bytes32"
        }
      ],
      "stateMutability": "view",
      "type": "function"
    },
    {
      "inputs": [],
      "name": "NAME",
      "outputs": [
        {
          "internalType": "string",
          "name": "",
          "type": "string"
        }
      ],
      "stateMutability": "view",
      "type": "function"
    },
    {
      "inputs": [],
      "name": "VERSION",
      "outputs": [
        {
          "internalType": "string",
          "name": "",
          "type": "string"
        }
      ],
      "stateMutability": "view",
      "type": "function"
    },
    {
      "inputs": [
        {
          "internalType": "address[]",
          "name": "_delegates",
          "type": "address[]"
        }
      ],
      "name": "addDelegates",
      "outputs": [],
      "stateMutability": "nonpayable",
      "type": "function"
    },
    {
      "inputs": [
        {
          "internalType": "address",
          "name": "",
          "type": "address"
        }
      ],
      "name": "approvedDelegates",
      "outputs": [
        {
          "internalType": "bool",
          "name": "",
          "type": "bool"
        }
      ],
      "stateMutability": "view",
      "type": "function"
    },
    {
      "inputs": [
        {
          "internalType": "string",
          "name": "_grantRefID",
          "type": "string"
        }
      ],
      "name": "cancelGrant",
      "outputs": [],
      "stateMutability": "nonpayable",
      "type": "function"
    },
    {
      "inputs": [
        {
          "internalType": "string",
          "name": "_grantRefID",
          "type": "string"
        }
      ],
      "name": "getGrant",
      "outputs": [
        {
          "components": [
            {
              "internalType": "address",
              "name": "delegate",
              "type": "address"
            },
            {
              "internalType": "address",
              "name": "grantee",
              "type": "address"
            },
            {
              "internalType": "uint96",
              "name": "amount",
              "type": "uint96"
            },
            {
              "internalType": "uint96",
              "name": "distributedAmount",
              "type": "uint96"
            },
            {
              "internalType": "uint96",
              "name": "milestoneAmount",
              "type": "uint96"
            },
            {
              "internalType": "uint96",
              "name": "reachedMilestoneAmount",
              "type": "uint96"
            },
            {
              "internalType": "string",
              "name": "grantRefID",
              "type": "string"
            },
            {
              "internalType": "enum Enum.GrantStatus",
              "name": "status",
              "type": "uint8"
            },
            {
              "internalType": "uint16",
              "name": "nonce",
              "type": "uint16"
            }
          ],
          "internalType": "struct GrantPayment.Grant",
          "name": "",
          "type": "tuple"
        }
      ],
      "stateMutability": "view",
      "type": "function"
    },
    {
      "inputs": [
        {
          "internalType": "string",
          "name": "",
          "type": "string"
        }
      ],
      "name": "grants",
      "outputs": [
        {
          "internalType": "address",
          "name": "delegate",
          "type": "address"
        },
        {
          "internalType": "address",
          "name": "grantee",
          "type": "address"
        },
        {
          "internalType": "uint96",
          "name": "amount",
          "type": "uint96"
        },
        {
          "internalType": "uint96",
          "name": "distributedAmount",
          "type": "uint96"
        },
        {
          "internalType": "uint96",
          "name": "milestoneAmount",
          "type": "uint96"
        },
        {
          "internalType": "uint96",
          "name": "reachedMilestoneAmount",
          "type": "uint96"
        },
        {
          "internalType": "string",
          "name": "grantRefID",
          "type": "string"
        },
        {
          "internalType": "enum Enum.GrantStatus",
          "name": "status",
          "type": "uint8"
        },
        {
          "internalType": "uint16",
          "name": "nonce",
          "type": "uint16"
        }
      ],
      "stateMutability": "view",
      "type": "function"
    },
    {
      "inputs": [],
      "name": "owner",
      "outputs": [
        {
          "internalType": "address",
          "name": "",
          "type": "address"
        }
      ],
      "stateMutability": "view",
      "type": "function"
    },
    {
      "inputs": [
        {
          "internalType": "address",
          "name": "_granteeAddress",
          "type": "address"
        },
        {
          "internalType": "address",
          "name": "_delegate",
          "type": "address"
        },
        {
          "internalType": "uint96",
          "name": "_amount",
          "type": "uint96"
        },
        {
          "internalType": "uint96",
          "name": "_milestoneAmount",
          "type": "uint96"
        },
        {
          "internalType": "string",
          "name": "_grantRefID",
          "type": "string"
        }
      ],
      "name": "setGrant",
      "outputs": [],
      "stateMutability": "nonpayable",
      "type": "function"
    },
    {
      "inputs": [],
      "name": "token",
      "outputs": [
        {
          "internalType": "contract IERC20",
          "name": "",
          "type": "address"
        }
      ],
      "stateMutability": "view",
      "type": "function"
    },
    {
      "inputs": [
        {
          "internalType": "string",
          "name": "_grantRefID",
          "type": "string"
        },
        {
          "internalType": "uint96",
          "name": "_currentMilestone",
          "type": "uint96"
        },
        {
          "internalType": "address",
          "name": "_delegate",
          "type": "address"
        }
      ],
      "name": "updateGrant",
      "outputs": [],
      "stateMutability": "payable",
      "type": "function"
    },
    {
      "inputs": [
        {
          "internalType": "string",
          "name": "_grantRefID",
          "type": "string"
        },
        {
          "internalType": "address",
          "name": "_newDelegate",
          "type": "address"
        }
      ],
      "name": "updateGrantDelegate",
      "outputs": [],
      "stateMutability": "nonpayable",
      "type": "function"
    }
  ],
  "transactionHash": "0xe135c6fe8774f3cd0d8aaf43967391f9a064d32b75b6e8a4a2083b29b4a0235f",
  "args": [
    "0x4582480Eae797Fa27C89B6eac5bf70a386E39AD3"
  ],
  "numDeployments": 1,
  "solcInputHash": "5e3516b7ff37e61b4bf839c21e358821",
  "bytecode": "0x60806040523480156200001157600080fd5b5060405162002fda38038062002fda833981810160405281019062000037919062000139565b33600160006101000a81548173ffffffffffffffffffffffffffffffffffffffff021916908373ffffffffffffffffffffffffffffffffffffffff16021790555080600260006101000a81548173ffffffffffffffffffffffffffffffffffffffff021916908373ffffffffffffffffffffffffffffffffffffffff160217905550600260009054906101000a900473ffffffffffffffffffffffffffffffffffffffff166000806101000a81548173ffffffffffffffffffffffffffffffffffffffff021916908373ffffffffffffffffffffffffffffffffffffffff16021790555050620001b3565b600081519050620001338162000199565b92915050565b6000602082840312156200014c57600080fd5b60006200015c8482850162000122565b91505092915050565b6000620001728262000179565b9050919050565b600073ffffffffffffffffffffffffffffffffffffffff82169050919050565b620001a48162000165565b8114620001b057600080fd5b50565b612e1780620001c36000396000f3fe6080604052600436106100dd5760003560e01c80638da5cb5b1161007f578063e1ad037711610059578063e1ad0377146102b9578063eb700373146102e4578063fc0c546a1461030d578063ffa1ad7414610338576100dd565b80638da5cb5b1461023a57806390e1ebda14610265578063a3f4df7e1461028e576100dd565b806333aec12a116100bb57806333aec12a1461015257806346015978146101975780634b531c05146101d45780636c2b6ef914610211576100dd565b80630c1f5972146100e25780631db61b54146100fe5780631f62bd0114610129575b600080fd5b6100fc60048036038101906100f79190612333565b610363565b005b34801561010a57600080fd5b506101136108c5565b60405161012091906127f4565b60405180910390f35b34801561013557600080fd5b50610150600480360381019061014b91906122df565b6108e9565b005b34801561015e57600080fd5b506101796004803603810190610174919061229e565b610ae2565b60405161018e99989796959493929190612745565b60405180910390f35b3480156101a357600080fd5b506101be60048036038101906101b9919061217c565b610c89565b6040516101cb91906127d9565b60405180910390f35b3480156101e057600080fd5b506101fb60048036038101906101f6919061229e565b610ca9565b6040516102089190612948565b60405180910390f35b34801561021d57600080fd5b506102386004803603810190610233919061229e565b610fbf565b005b34801561024657600080fd5b5061024f611418565b60405161025c91906126f3565b60405180910390f35b34801561027157600080fd5b5061028c600480360381019061028791906121a5565b61143e565b005b34801561029a57600080fd5b506102a3611788565b6040516102b0919061282a565b60405180910390f35b3480156102c557600080fd5b506102ce6117c1565b6040516102db91906127f4565b60405180910390f35b3480156102f057600080fd5b5061030b60048036038101906103069190612234565b6117e5565b005b34801561031957600080fd5b50610322611930565b60405161032f919061280f565b60405180910390f35b34801561034457600080fd5b5061034d611954565b60405161035a919061282a565b60405180910390f35b600060038460405161037591906126dc565b9081526020016040518091039020604051806101200160405290816000820160009054906101000a900473ffffffffffffffffffffffffffffffffffffffff1673ffffffffffffffffffffffffffffffffffffffff1673ffffffffffffffffffffffffffffffffffffffff1681526020016001820160009054906101000a900473ffffffffffffffffffffffffffffffffffffffff1673ffffffffffffffffffffffffffffffffffffffff1673ffffffffffffffffffffffffffffffffffffffff1681526020016001820160149054906101000a90046bffffffffffffffffffffffff166bffffffffffffffffffffffff166bffffffffffffffffffffffff1681526020016002820160009054906101000a90046bffffffffffffffffffffffff166bffffffffffffffffffffffff166bffffffffffffffffffffffff16815260200160028201600c9054906101000a90046bffffffffffffffffffffffff166bffffffffffffffffffffffff166bffffffffffffffffffffffff1681526020016003820160009054906101000a90046bffffffffffffffffffffffff166bffffffffffffffffffffffff166bffffffffffffffffffffffff16815260200160048201805461054390612c11565b80601f016020809104026020016040519081016040528092919081815260200182805461056f90612c11565b80156105bc5780601f10610591576101008083540402835291602001916105bc565b820191906000526020600020905b81548152906001019060200180831161059f57829003601f168201915b505050505081526020016005820160009054906101000a900460ff166003811115610610577f4e487b7100000000000000000000000000000000000000000000000000000000600052602160045260246000fd5b6003811115610648577f4e487b7100000000000000000000000000000000000000000000000000000000600052602160045260246000fd5b81526020016005820160019054906101000a900461ffff1661ffff1661ffff16815250509050826bffffffffffffffffffffffff168160a001516bffffffffffffffffffffffff161461084f57828160a001906bffffffffffffffffffffffff1690816bffffffffffffffffffffffff16815250506106c68461198d565b826bffffffffffffffffffffffff1681608001516bffffffffffffffffffffffff1614156107a95760028160e00190600381111561072d577f4e487b7100000000000000000000000000000000000000000000000000000000600052602160045260246000fd5b90816003811115610767577f4e487b7100000000000000000000000000000000000000000000000000000000600052602160045260246000fd5b815250507f917b135d16171ace46753a2e622d103ad36702bc83e7e15d4613e23819b7195f848260e001516040516107a0929190612898565b60405180910390a15b826bffffffffffffffffffffffff1681608001516bffffffffffffffffffffffff161461084e5760018160e00190600381111561080f577f4e487b7100000000000000000000000000000000000000000000000000000000600052602160045260246000fd5b90816003811115610849577f4e487b7100000000000000000000000000000000000000000000000000000000600052602160045260246000fd5b815250505b5b8173ffffffffffffffffffffffffffffffffffffffff16816000015173ffffffffffffffffffffffffffffffffffffffff16146108bf5781816000019073ffffffffffffffffffffffffffffffffffffffff16908173ffffffffffffffffffffffffffffffffffffffff16815250505b50505050565b7fe29ae391d56380108ce928315a6cca9ba356584f5bc9cd9430d7208954f3a93781565b816003816040516108fa91906126dc565b908152602001604051809103902060000160009054906101000a900473ffffffffffffffffffffffffffffffffffffffff1673ffffffffffffffffffffffffffffffffffffffff163373ffffffffffffffffffffffffffffffffffffffff1614806109b25750600160009054906101000a900473ffffffffffffffffffffffffffffffffffffffff1673ffffffffffffffffffffffffffffffffffffffff163373ffffffffffffffffffffffffffffffffffffffff16145b6109f1576040517f08c379a00000000000000000000000000000000000000000000000000000000081526004016109e8906128c8565b60405180910390fd5b600460008373ffffffffffffffffffffffffffffffffffffffff1673ffffffffffffffffffffffffffffffffffffffff16815260200190815260200160002060009054906101000a900460ff16610a7d576040517f08c379a0000000000000000000000000000000000000000000000000000000008152600401610a7490612928565b60405180910390fd5b81600384604051610a8e91906126dc565b908152602001604051809103902060000160006101000a81548173ffffffffffffffffffffffffffffffffffffffff021916908373ffffffffffffffffffffffffffffffffffffffff160217905550505050565b6003818051602081018201805184825260208301602085012081835280955050505050506000915090508060000160009054906101000a900473ffffffffffffffffffffffffffffffffffffffff16908060010160009054906101000a900473ffffffffffffffffffffffffffffffffffffffff16908060010160149054906101000a90046bffffffffffffffffffffffff16908060020160009054906101000a90046bffffffffffffffffffffffff169080600201600c9054906101000a90046bffffffffffffffffffffffff16908060030160009054906101000a90046bffffffffffffffffffffffff1690806004018054610bdf90612c11565b80601f0160208091040260200160405190810160405280929190818152602001828054610c0b90612c11565b8015610c585780601f10610c2d57610100808354040283529160200191610c58565b820191906000526020600020905b815481529060010190602001808311610c3b57829003601f168201915b5050505050908060050160009054906101000a900460ff16908060050160019054906101000a900461ffff16905089565b60046020528060005260406000206000915054906101000a900460ff1681565b610cb1611eb0565b600382604051610cc191906126dc565b9081526020016040518091039020604051806101200160405290816000820160009054906101000a900473ffffffffffffffffffffffffffffffffffffffff1673ffffffffffffffffffffffffffffffffffffffff1673ffffffffffffffffffffffffffffffffffffffff1681526020016001820160009054906101000a900473ffffffffffffffffffffffffffffffffffffffff1673ffffffffffffffffffffffffffffffffffffffff1673ffffffffffffffffffffffffffffffffffffffff1681526020016001820160149054906101000a90046bffffffffffffffffffffffff166bffffffffffffffffffffffff166bffffffffffffffffffffffff1681526020016002820160009054906101000a90046bffffffffffffffffffffffff166bffffffffffffffffffffffff166bffffffffffffffffffffffff16815260200160028201600c9054906101000a90046bffffffffffffffffffffffff166bffffffffffffffffffffffff166bffffffffffffffffffffffff1681526020016003820160009054906101000a90046bffffffffffffffffffffffff166bffffffffffffffffffffffff166bffffffffffffffffffffffff168152602001600482018054610e8f90612c11565b80601f0160208091040260200160405190810160405280929190818152602001828054610ebb90612c11565b8015610f085780601f10610edd57610100808354040283529160200191610f08565b820191906000526020600020905b815481529060010190602001808311610eeb57829003601f168201915b505050505081526020016005820160009054906101000a900460ff166003811115610f5c577f4e487b7100000000000000000000000000000000000000000000000000000000600052602160045260246000fd5b6003811115610f94577f4e487b7100000000000000000000000000000000000000000000000000000000600052602160045260246000fd5b81526020016005820160019054906101000a900461ffff1661ffff1661ffff16815250509050919050565b600160009054906101000a900473ffffffffffffffffffffffffffffffffffffffff1673ffffffffffffffffffffffffffffffffffffffff163373ffffffffffffffffffffffffffffffffffffffff161461104f576040517f08c379a000000000000000000000000000000000000000000000000000000000815260040161104690612908565b60405180910390fd5b600060038260405161106191906126dc565b9081526020016040518091039020604051806101200160405290816000820160009054906101000a900473ffffffffffffffffffffffffffffffffffffffff1673ffffffffffffffffffffffffffffffffffffffff1673ffffffffffffffffffffffffffffffffffffffff1681526020016001820160009054906101000a900473ffffffffffffffffffffffffffffffffffffffff1673ffffffffffffffffffffffffffffffffffffffff1673ffffffffffffffffffffffffffffffffffffffff1681526020016001820160149054906101000a90046bffffffffffffffffffffffff166bffffffffffffffffffffffff166bffffffffffffffffffffffff1681526020016002820160009054906101000a90046bffffffffffffffffffffffff166bffffffffffffffffffffffff166bffffffffffffffffffffffff16815260200160028201600c9054906101000a90046bffffffffffffffffffffffff166bffffffffffffffffffffffff166bffffffffffffffffffffffff1681526020016003820160009054906101000a90046bffffffffffffffffffffffff166bffffffffffffffffffffffff166bffffffffffffffffffffffff16815260200160048201805461122f90612c11565b80601f016020809104026020016040519081016040528092919081815260200182805461125b90612c11565b80156112a85780601f1061127d576101008083540402835291602001916112a8565b820191906000526020600020905b81548152906001019060200180831161128b57829003601f168201915b505050505081526020016005820160009054906101000a900460ff1660038111156112fc577f4e487b7100000000000000000000000000000000000000000000000000000000600052602160045260246000fd5b6003811115611334577f4e487b7100000000000000000000000000000000000000000000000000000000600052602160045260246000fd5b81526020016005820160019054906101000a900461ffff1661ffff1661ffff1681525050905060038160e001906003811115611399577f4e487b7100000000000000000000000000000000000000000000000000000000600052602160045260246000fd5b908160038111156113d3577f4e487b7100000000000000000000000000000000000000000000000000000000600052602160045260246000fd5b815250507f72550304b060b84fb1965b7602034759f65a574b89be2930babf4fc5356abe96828260e0015160405161140c929190612898565b60405180910390a15050565b600160009054906101000a900473ffffffffffffffffffffffffffffffffffffffff1681565b6040518061012001604052808573ffffffffffffffffffffffffffffffffffffffff1681526020018673ffffffffffffffffffffffffffffffffffffffff168152602001846bffffffffffffffffffffffff16815260200160006bffffffffffffffffffffffff168152602001836bffffffffffffffffffffffff16815260200160006bffffffffffffffffffffffff16815260200182815260200160006003811115611514577f4e487b7100000000000000000000000000000000000000000000000000000000600052602160045260246000fd5b8152602001600061ffff1681525060038260405161153291906126dc565b908152602001604051809103902060008201518160000160006101000a81548173ffffffffffffffffffffffffffffffffffffffff021916908373ffffffffffffffffffffffffffffffffffffffff16021790555060208201518160010160006101000a81548173ffffffffffffffffffffffffffffffffffffffff021916908373ffffffffffffffffffffffffffffffffffffffff16021790555060408201518160010160146101000a8154816bffffffffffffffffffffffff02191690836bffffffffffffffffffffffff16021790555060608201518160020160006101000a8154816bffffffffffffffffffffffff02191690836bffffffffffffffffffffffff160217905550608082015181600201600c6101000a8154816bffffffffffffffffffffffff02191690836bffffffffffffffffffffffff16021790555060a08201518160030160006101000a8154816bffffffffffffffffffffffff02191690836bffffffffffffffffffffffff16021790555060c08201518160040190805190602001906116c6929190611f9c565b5060e08201518160050160006101000a81548160ff02191690836003811115611718577f4e487b7100000000000000000000000000000000000000000000000000000000600052602160045260246000fd5b02179055506101008201518160050160016101000a81548161ffff021916908361ffff1602179055509050507fbf264907becbe9032224e5c73b8f9c259d9925c669d303003745b4783806782281858585604051611779949392919061284c565b60405180910390a15050505050565b6040518060400160405280600d81526020017f4752414e5453204d6f64756c650000000000000000000000000000000000000081525081565b7fe3b859addf4ff702db3c81f356a5115754a64f22dd16b6175f26b4b444aac1ec81565b600160009054906101000a900473ffffffffffffffffffffffffffffffffffffffff1673ffffffffffffffffffffffffffffffffffffffff163373ffffffffffffffffffffffffffffffffffffffff1614611875576040517f08c379a000000000000000000000000000000000000000000000000000000000815260040161186c90612908565b60405180910390fd5b60005b815181101561192c576001600460008484815181106118c0577f4e487b7100000000000000000000000000000000000000000000000000000000600052603260045260246000fd5b602002602001015173ffffffffffffffffffffffffffffffffffffffff1673ffffffffffffffffffffffffffffffffffffffff16815260200190815260200160002060006101000a81548160ff021916908315150217905550808061192490612c43565b915050611878565b5050565b60008054906101000a900473ffffffffffffffffffffffffffffffffffffffff1681565b6040518060400160405280600581526020017f302e312e3000000000000000000000000000000000000000000000000000000081525081565b600060038260405161199f91906126dc565b9081526020016040518091039020604051806101200160405290816000820160009054906101000a900473ffffffffffffffffffffffffffffffffffffffff1673ffffffffffffffffffffffffffffffffffffffff1673ffffffffffffffffffffffffffffffffffffffff1681526020016001820160009054906101000a900473ffffffffffffffffffffffffffffffffffffffff1673ffffffffffffffffffffffffffffffffffffffff1673ffffffffffffffffffffffffffffffffffffffff1681526020016001820160149054906101000a90046bffffffffffffffffffffffff166bffffffffffffffffffffffff166bffffffffffffffffffffffff1681526020016002820160009054906101000a90046bffffffffffffffffffffffff166bffffffffffffffffffffffff166bffffffffffffffffffffffff16815260200160028201600c9054906101000a90046bffffffffffffffffffffffff166bffffffffffffffffffffffff166bffffffffffffffffffffffff1681526020016003820160009054906101000a90046bffffffffffffffffffffffff166bffffffffffffffffffffffff166bffffffffffffffffffffffff168152602001600482018054611b6d90612c11565b80601f0160208091040260200160405190810160405280929190818152602001828054611b9990612c11565b8015611be65780601f10611bbb57610100808354040283529160200191611be6565b820191906000526020600020905b815481529060010190602001808311611bc957829003601f168201915b505050505081526020016005820160009054906101000a900460ff166003811115611c3a577f4e487b7100000000000000000000000000000000000000000000000000000000600052602160045260246000fd5b6003811115611c72577f4e487b7100000000000000000000000000000000000000000000000000000000600052602160045260246000fd5b81526020016005820160019054906101000a900461ffff1661ffff1661ffff16815250509050600081608001518260400151611cae9190612aa9565b905081604001516bffffffffffffffffffffffff16818360600151611cd39190612a67565b6bffffffffffffffffffffffff161115611d22576040517f08c379a0000000000000000000000000000000000000000000000000000000008152600401611d19906128e8565b60405180910390fd5b60008054906101000a900473ffffffffffffffffffffffffffffffffffffffff1673ffffffffffffffffffffffffffffffffffffffff166323b872dd338460200151346040518463ffffffff1660e01b8152600401611d839392919061270e565b602060405180830381600087803b158015611d9d57600080fd5b505af1158015611db1573d6000803e3d6000fd5b505050506040513d601f19601f82011682018060405250810190611dd59190612275565b506001826101000151611de89190612a2f565b82610100019061ffff16908161ffff16815250508082606001818151611e0e9190612a67565b9150906bffffffffffffffffffffffff1690816bffffffffffffffffffffffff16815250507fec7712faaec1442b3b1e2d3bc482892aad111554d472dc28e9e44bb187b5658d8260000151836020015184608001518560a00151866040015187606001518860c001518960e0015160018b6101000151611e8e9190612ada565b604051611ea399989796959493929190612745565b60405180910390a1505050565b604051806101200160405280600073ffffffffffffffffffffffffffffffffffffffff168152602001600073ffffffffffffffffffffffffffffffffffffffff16815260200160006bffffffffffffffffffffffff16815260200160006bffffffffffffffffffffffff16815260200160006bffffffffffffffffffffffff16815260200160006bffffffffffffffffffffffff1681526020016060815260200160006003811115611f8b577f4e487b7100000000000000000000000000000000000000000000000000000000600052602160045260246000fd5b8152602001600061ffff1681525090565b828054611fa890612c11565b90600052602060002090601f016020900481019282611fca5760008555612011565b82601f10611fe357805160ff1916838001178555612011565b82800160010185558215612011579182015b82811115612010578251825591602001919060010190611ff5565b5b50905061201e9190612022565b5090565b5b8082111561203b576000816000905550600101612023565b5090565b600061205261204d8461299b565b61296a565b9050808382526020820190508285602086028201111561207157600080fd5b60005b858110156120a1578161208788826120e9565b845260208401935060208301925050600181019050612074565b5050509392505050565b60006120be6120b9846129c7565b61296a565b9050828152602081018484840111156120d657600080fd5b6120e1848285612bcf565b509392505050565b6000813590506120f881612d9c565b92915050565b600082601f83011261210f57600080fd5b813561211f84826020860161203f565b91505092915050565b60008151905061213781612db3565b92915050565b600082601f83011261214e57600080fd5b813561215e8482602086016120ab565b91505092915050565b60008135905061217681612dca565b92915050565b60006020828403121561218e57600080fd5b600061219c848285016120e9565b91505092915050565b600080600080600060a086880312156121bd57600080fd5b60006121cb888289016120e9565b95505060206121dc888289016120e9565b94505060406121ed88828901612167565b93505060606121fe88828901612167565b925050608086013567ffffffffffffffff81111561221b57600080fd5b6122278882890161213d565b9150509295509295909350565b60006020828403121561224657600080fd5b600082013567ffffffffffffffff81111561226057600080fd5b61226c848285016120fe565b91505092915050565b60006020828403121561228757600080fd5b600061229584828501612128565b91505092915050565b6000602082840312156122b057600080fd5b600082013567ffffffffffffffff8111156122ca57600080fd5b6122d68482850161213d565b91505092915050565b600080604083850312156122f257600080fd5b600083013567ffffffffffffffff81111561230c57600080fd5b6123188582860161213d565b9250506020612329858286016120e9565b9150509250929050565b60008060006060848603121561234857600080fd5b600084013567ffffffffffffffff81111561236257600080fd5b61236e8682870161213d565b935050602061237f86828701612167565b9250506040612390868287016120e9565b9150509250925092565b6123a381612b0e565b82525050565b6123b281612b0e565b82525050565b6123c181612b20565b82525050565b6123d081612b2c565b82525050565b6123df81612b99565b82525050565b6123ee81612bbd565b82525050565b6123fd81612bbd565b82525050565b600061240e826129f7565b6124188185612a02565b9350612428818560208601612bde565b61243181612d77565b840191505092915050565b6000612447826129f7565b6124518185612a13565b9350612461818560208601612bde565b61246a81612d77565b840191505092915050565b6000612480826129f7565b61248a8185612a24565b935061249a818560208601612bde565b80840191505092915050565b60006124b3603183612a13565b91507f4e6f7420617574686f72697a65643a206d7573742062652063757272656e742060008301527f64656c6567617465206f72206f776e65720000000000000000000000000000006020830152604082019050919050565b6000612519601c83612a13565b91507f5472616e736665722065786365656473206772616e74206c696d6974000000006000830152602082019050919050565b6000612559601d83612a13565b91507f4e6f7420617574686f72697a65643a206d757374206265206f776e65720000006000830152602082019050919050565b6000612599601c83612a13565b91507f4e65772064656c6567617465206973206e6f7420617070726f766564000000006000830152602082019050919050565b6000610120830160008301516125e5600086018261239a565b5060208301516125f8602086018261239a565b50604083015161260b60408601826126be565b50606083015161261e60608601826126be565b50608083015161263160808601826126be565b5060a083015161264460a08601826126be565b5060c083015184820360c086015261265c8282612403565b91505060e083015161267160e08601826123e5565b50610100830151612686610100860182612691565b508091505092915050565b61269a81612b49565b82525050565b6126a981612b49565b82525050565b6126b881612b77565b82525050565b6126c781612b81565b82525050565b6126d681612b81565b82525050565b60006126e88284612475565b915081905092915050565b600060208201905061270860008301846123a9565b92915050565b600060608201905061272360008301866123a9565b61273060208301856123a9565b61273d60408301846126af565b949350505050565b60006101208201905061275b600083018c6123a9565b612768602083018b6123a9565b612775604083018a6126cd565b61278260608301896126cd565b61278f60808301886126cd565b61279c60a08301876126cd565b81810360c08301526127ae818661243c565b90506127bd60e08301856123f4565b6127cb6101008301846126a0565b9a9950505050505050505050565b60006020820190506127ee60008301846123b8565b92915050565b600060208201905061280960008301846123c7565b92915050565b600060208201905061282460008301846123d6565b92915050565b60006020820190508181036000830152612844818461243c565b905092915050565b60006080820190508181036000830152612866818761243c565b905061287560208301866123a9565b61288260408301856126cd565b61288f60608301846126cd565b95945050505050565b600060408201905081810360008301526128b2818561243c565b90506128c160208301846123f4565b9392505050565b600060208201905081810360008301526128e1816124a6565b9050919050565b600060208201905081810360008301526129018161250c565b9050919050565b600060208201905081810360008301526129218161254c565b9050919050565b600060208201905081810360008301526129418161258c565b9050919050565b6000602082019050818103600083015261296281846125cc565b905092915050565b6000604051905081810181811067ffffffffffffffff8211171561299157612990612d48565b5b8060405250919050565b600067ffffffffffffffff8211156129b6576129b5612d48565b5b602082029050602081019050919050565b600067ffffffffffffffff8211156129e2576129e1612d48565b5b601f19601f8301169050602081019050919050565b600081519050919050565b600082825260208201905092915050565b600082825260208201905092915050565b600081905092915050565b6000612a3a82612b49565b9150612a4583612b49565b92508261ffff03821115612a5c57612a5b612c8c565b5b828201905092915050565b6000612a7282612b81565b9150612a7d83612b81565b9250826bffffffffffffffffffffffff03821115612a9e57612a9d612c8c565b5b828201905092915050565b6000612ab482612b81565b9150612abf83612b81565b925082612acf57612ace612cbb565b5b828204905092915050565b6000612ae582612b49565b9150612af083612b49565b925082821015612b0357612b02612c8c565b5b828203905092915050565b6000612b1982612b57565b9050919050565b60008115159050919050565b6000819050919050565b6000819050612b4482612d88565b919050565b600061ffff82169050919050565b600073ffffffffffffffffffffffffffffffffffffffff82169050919050565b6000819050919050565b60006bffffffffffffffffffffffff82169050919050565b6000612ba482612bab565b9050919050565b6000612bb682612b57565b9050919050565b6000612bc882612b36565b9050919050565b82818337600083830152505050565b60005b83811015612bfc578082015181840152602081019050612be1565b83811115612c0b576000848401525b50505050565b60006002820490506001821680612c2957607f821691505b60208210811415612c3d57612c3c612d19565b5b50919050565b6000612c4e82612b77565b91507fffffffffffffffffffffffffffffffffffffffffffffffffffffffffffffffff821415612c8157612c80612c8c565b5b600182019050919050565b7f4e487b7100000000000000000000000000000000000000000000000000000000600052601160045260246000fd5b7f4e487b7100000000000000000000000000000000000000000000000000000000600052601260045260246000fd5b7f4e487b7100000000000000000000000000000000000000000000000000000000600052602160045260246000fd5b7f4e487b7100000000000000000000000000000000000000000000000000000000600052602260045260246000fd5b7f4e487b7100000000000000000000000000000000000000000000000000000000600052604160045260246000fd5b6000601f19601f8301169050919050565b60048110612d9957612d98612cea565b5b50565b612da581612b0e565b8114612db057600080fd5b50565b612dbc81612b20565b8114612dc757600080fd5b50565b612dd381612b81565b8114612dde57600080fd5b5056fea26469706673582212202ed94e491b0c89508523ff57c21850423e41d73c2a9322223c27c18cbbb1867164736f6c63430008000033",
  "devdoc": {
    "kind": "dev",
    "methods": {},
    "version": 1
  },
  "userdoc": {
    "kind": "user",
    "methods": {},
    "version": 1
  },
  "storageLayout": {
    "storage": [
      {
        "astId": 97,
        "contract": "contracts/GrantPayment.sol:GrantPayment",
        "label": "token",
        "offset": 0,
        "slot": "0",
        "type": "t_contract(IERC20)77"
      },
      {
        "astId": 115,
        "contract": "contracts/GrantPayment.sol:GrantPayment",
        "label": "owner",
        "offset": 0,
        "slot": "1",
        "type": "t_address"
      },
      {
        "astId": 117,
        "contract": "contracts/GrantPayment.sol:GrantPayment",
        "label": "tokenAddress",
        "offset": 0,
        "slot": "2",
        "type": "t_address"
      },
      {
        "astId": 122,
        "contract": "contracts/GrantPayment.sol:GrantPayment",
        "label": "grants",
        "offset": 0,
        "slot": "3",
        "type": "t_mapping(t_string_memory_ptr,t_struct(Grant)146_storage)"
      },
      {
        "astId": 126,
        "contract": "contracts/GrantPayment.sol:GrantPayment",
        "label": "approvedDelegates",
        "offset": 0,
        "slot": "4",
        "type": "t_mapping(t_address,t_bool)"
      }
    ],
    "types": {
      "t_address": {
        "encoding": "inplace",
        "label": "address",
        "numberOfBytes": "20"
      },
      "t_bool": {
        "encoding": "inplace",
        "label": "bool",
        "numberOfBytes": "1"
      },
      "t_contract(IERC20)77": {
        "encoding": "inplace",
        "label": "contract IERC20",
        "numberOfBytes": "20"
      },
      "t_enum(GrantStatus)88": {
        "encoding": "inplace",
        "label": "enum Enum.GrantStatus",
        "numberOfBytes": "1"
      },
      "t_mapping(t_address,t_bool)": {
        "encoding": "mapping",
        "key": "t_address",
        "label": "mapping(address => bool)",
        "numberOfBytes": "32",
        "value": "t_bool"
      },
      "t_mapping(t_string_memory_ptr,t_struct(Grant)146_storage)": {
        "encoding": "mapping",
        "key": "t_string_memory_ptr",
        "label": "mapping(string => struct GrantPayment.Grant)",
        "numberOfBytes": "32",
        "value": "t_struct(Grant)146_storage"
      },
      "t_string_memory_ptr": {
        "encoding": "bytes",
        "label": "string",
        "numberOfBytes": "32"
      },
      "t_string_storage": {
        "encoding": "bytes",
        "label": "string",
        "numberOfBytes": "32"
      },
      "t_struct(Grant)146_storage": {
        "encoding": "inplace",
        "label": "struct GrantPayment.Grant",
        "members": [
          {
            "astId": 128,
            "contract": "contracts/GrantPayment.sol:GrantPayment",
            "label": "delegate",
            "offset": 0,
            "slot": "0",
            "type": "t_address"
          },
          {
            "astId": 130,
            "contract": "contracts/GrantPayment.sol:GrantPayment",
            "label": "grantee",
            "offset": 0,
            "slot": "1",
            "type": "t_address"
          },
          {
            "astId": 132,
            "contract": "contracts/GrantPayment.sol:GrantPayment",
            "label": "amount",
            "offset": 20,
            "slot": "1",
            "type": "t_uint96"
          },
          {
            "astId": 134,
            "contract": "contracts/GrantPayment.sol:GrantPayment",
            "label": "distributedAmount",
            "offset": 0,
            "slot": "2",
            "type": "t_uint96"
          },
          {
            "astId": 136,
            "contract": "contracts/GrantPayment.sol:GrantPayment",
            "label": "milestoneAmount",
            "offset": 12,
            "slot": "2",
            "type": "t_uint96"
          },
          {
            "astId": 138,
            "contract": "contracts/GrantPayment.sol:GrantPayment",
            "label": "reachedMilestoneAmount",
            "offset": 0,
            "slot": "3",
            "type": "t_uint96"
          },
          {
            "astId": 140,
            "contract": "contracts/GrantPayment.sol:GrantPayment",
            "label": "grantRefID",
            "offset": 0,
            "slot": "4",
            "type": "t_string_storage"
          },
          {
            "astId": 143,
            "contract": "contracts/GrantPayment.sol:GrantPayment",
            "label": "status",
            "offset": 0,
            "slot": "5",
            "type": "t_enum(GrantStatus)88"
          },
          {
            "astId": 145,
            "contract": "contracts/GrantPayment.sol:GrantPayment",
            "label": "nonce",
            "offset": 1,
            "slot": "5",
            "type": "t_uint16"
          }
        ],
        "numberOfBytes": "192"
      },
      "t_uint16": {
        "encoding": "inplace",
        "label": "uint16",
        "numberOfBytes": "2"
      },
      "t_uint96": {
        "encoding": "inplace",
        "label": "uint96",
        "numberOfBytes": "12"
      }
    }
  }
}