{
    "address": "0x1809F0a8a8f9b361E6Ddba3D8fD06D337840103A",
    "abi": [
        {
            "inputs": [
                {
                    "internalType": "address",
                    "name": "_tokenAddress",
                    "type": "address"
                }
            ],
            "stateMutability": "nonpayable",
            "type": "constructor"
        },
        {
            "inputs": [],
            "name": "DOMAIN_SEPARATOR_TYPEHASH",
            "outputs": [
                {
                    "internalType": "bytes32",
                    "name": "",
                    "type": "bytes32"
                }
            ],
            "stateMutability": "view",
            "type": "function"
        },
        {
            "inputs": [],
            "name": "GRANT_TRANSFER_TYPEHASH",
            "outputs": [
                {
                    "internalType": "bytes32",
                    "name": "",
                    "type": "bytes32"
                }
            ],
            "stateMutability": "view",
            "type": "function"
        },
        {
            "inputs": [],
            "name": "NAME",
            "outputs": [
                {
                    "internalType": "string",
                    "name": "",
                    "type": "string"
                }
            ],
            "stateMutability": "view",
            "type": "function"
        },
        {
            "inputs": [],
            "name": "VERSION",
            "outputs": [
                {
                    "internalType": "string",
                    "name": "",
                    "type": "string"
                }
            ],
            "stateMutability": "view",
            "type": "function"
        },
        {
            "inputs": [
                {
                    "internalType": "address[]",
                    "name": "_delegates",
                    "type": "address[]"
                }
            ],
            "name": "addDelegates",
            "outputs": [],
            "stateMutability": "nonpayable",
            "type": "function"
        },
        {
            "inputs": [
                {
                    "internalType": "address",
                    "name": "",
                    "type": "address"
                }
            ],
            "name": "approvedDelegates",
            "outputs": [
                {
                    "internalType": "bool",
                    "name": "",
                    "type": "bool"
                }
            ],
            "stateMutability": "view",
            "type": "function"
        },
        {
            "inputs": [
                {
                    "internalType": "address",
                    "name": "_granteeAddress",
                    "type": "address"
                }
            ],
            "name": "deleteGrant",
            "outputs": [],
            "stateMutability": "nonpayable",
            "type": "function"
        },
        {
            "inputs": [
                {
                    "internalType": "address",
                    "name": "_granteeAddress",
                    "type": "address"
                }
            ],
            "name": "getGrant",
            "outputs": [
                {
                    "components": [
                        {
                            "internalType": "address",
                            "name": "delegate",
                            "type": "address"
                        },
                        {
                            "internalType": "uint96",
                            "name": "amount",
                            "type": "uint96"
                        },
                        {
                            "internalType": "uint96",
                            "name": "distributedAmount",
                            "type": "uint96"
                        },
                        {
                            "internalType": "uint96",
                            "name": "milestoneAmount",
                            "type": "uint96"
                        },
                        {
                            "internalType": "uint96",
                            "name": "reachedMilestoneAmount",
                            "type": "uint96"
                        },
                        {
                            "internalType": "string",
                            "name": "grantRefID",
                            "type": "string"
                        },
                        {
                            "internalType": "uint16",
                            "name": "nonce",
                            "type": "uint16"
                        }
                    ],
                    "internalType": "struct GrantPaymentModule.Grant",
                    "name": "",
                    "type": "tuple"
                }
            ],
            "stateMutability": "view",
            "type": "function"
        },
        {
            "inputs": [
                {
                    "internalType": "address",
                    "name": "",
                    "type": "address"
                }
            ],
            "name": "grants",
            "outputs": [
                {
                    "internalType": "address",
                    "name": "delegate",
                    "type": "address"
                },
                {
                    "internalType": "uint96",
                    "name": "amount",
                    "type": "uint96"
                },
                {
                    "internalType": "uint96",
                    "name": "distributedAmount",
                    "type": "uint96"
                },
                {
                    "internalType": "uint96",
                    "name": "milestoneAmount",
                    "type": "uint96"
                },
                {
                    "internalType": "uint96",
                    "name": "reachedMilestoneAmount",
                    "type": "uint96"
                },
                {
                    "internalType": "string",
                    "name": "grantRefID",
                    "type": "string"
                },
                {
                    "internalType": "uint16",
                    "name": "nonce",
                    "type": "uint16"
                }
            ],
            "stateMutability": "view",
            "type": "function"
        },
        {
            "inputs": [],
            "name": "owner",
            "outputs": [
                {
                    "internalType": "address",
                    "name": "",
                    "type": "address"
                }
            ],
            "stateMutability": "view",
            "type": "function"
        },
        {
            "inputs": [
                {
                    "internalType": "address",
                    "name": "_granteeAddress",
                    "type": "address"
                },
                {
                    "internalType": "address",
                    "name": "_delegate",
                    "type": "address"
                },
                {
                    "internalType": "uint96",
                    "name": "_amount",
                    "type": "uint96"
                },
                {
                    "internalType": "uint96",
                    "name": "_milestoneAmount",
                    "type": "uint96"
                },
                {
                    "internalType": "string",
                    "name": "_grantRefID",
                    "type": "string"
                }
            ],
            "name": "setGrant",
            "outputs": [],
            "stateMutability": "nonpayable",
            "type": "function"
        },
        {
            "inputs": [],
            "name": "token",
            "outputs": [
                {
                    "internalType": "contract IERC20",
                    "name": "",
                    "type": "address"
                }
            ],
            "stateMutability": "view",
            "type": "function"
        },
        {
            "inputs": [
                {
                    "internalType": "address",
                    "name": "_granteeAddress",
                    "type": "address"
                },
                {
                    "internalType": "uint96",
                    "name": "_currentMilestone",
                    "type": "uint96"
                },
                {
                    "internalType": "address",
                    "name": "_delegate",
                    "type": "address"
                }
            ],
            "name": "updateGrant",
            "outputs": [],
            "stateMutability": "nonpayable",
            "type": "function"
        },
        {
            "inputs": [
                {
                    "internalType": "address",
                    "name": "_granteeAddress",
                    "type": "address"
                },
                {
                    "internalType": "address",
                    "name": "_newDelegate",
                    "type": "address"
                }
            ],
            "name": "updateGrantDelegate",
            "outputs": [],
            "stateMutability": "nonpayable",
            "type": "function"
        }
    ],
    "transactionHash": "0x358875fa061968db4c53ca6c2ce9cf844b58799fbb6e775555f49564e125bab9",
    "args": [
        "0x4582480Eae797Fa27C89B6eac5bf70a386E39AD3"
    ],
    "numDeployments": 1,
    "solcInputHash": "109d0852d4f47ae45621623831197f03",
    "bytecode": "0x60806040523480156200001157600080fd5b50604051620023ac380380620023ac833981810160405281019062000037919062000139565b33600260006101000a81548173ffffffffffffffffffffffffffffffffffffffff021916908373ffffffffffffffffffffffffffffffffffffffff16021790555080600160006101000a81548173ffffffffffffffffffffffffffffffffffffffff021916908373ffffffffffffffffffffffffffffffffffffffff160217905550600160009054906101000a900473ffffffffffffffffffffffffffffffffffffffff166000806101000a81548173ffffffffffffffffffffffffffffffffffffffff021916908373ffffffffffffffffffffffffffffffffffffffff16021790555050620001b3565b600081519050620001338162000199565b92915050565b6000602082840312156200014c57600080fd5b60006200015c8482850162000122565b91505092915050565b6000620001728262000179565b9050919050565b600073ffffffffffffffffffffffffffffffffffffffff82169050919050565b620001a48162000165565b8114620001b057600080fd5b50565b6121e980620001c36000396000f3fe608060405234801561001057600080fd5b50600436106100ea5760003560e01c8063bf31dbf41161008c578063eb70037311610066578063eb70037314610251578063f8d308261461026d578063fc0c546a14610289578063ffa1ad74146102a7576100ea565b8063bf31dbf4146101e7578063e1ad037714610217578063eb36602b14610235576100ea565b80638da5cb5b116100c85780638da5cb5b1461015957806390e1ebda14610177578063a3f4df7e14610193578063b869cea3146101b1576100ea565b80631db61b54146100ef578063460159781461010d578063736ffad41461013d575b600080fd5b6100f76102c5565b6040516101049190611ccf565b60405180910390f35b610127600480360381019061012291906116cc565b6102e9565b6040516101349190611cb4565b60405180910390f35b610157600480360381019061015291906116f5565b610309565b005b610161610544565b60405161016e9190611bc3565b60405180910390f35b610191600480360381019061018c9190611731565b61056a565b005b61019b61079e565b6040516101a89190611d05565b60405180910390f35b6101cb60048036038101906101c691906116cc565b6107d7565b6040516101de9796959493929190611c3e565b60405180910390f35b61020160048036038101906101fc91906116cc565b61092f565b60405161020e9190611de7565b60405180910390f35b61021f610b88565b60405161022c9190611ccf565b60405180910390f35b61024f600480360381019061024a91906117c0565b610bac565b005b61026b6004803603810190610266919061180f565b610d9e565b005b610287600480360381019061028291906116cc565b610ee9565b005b610291611086565b60405161029e9190611cea565b60405180910390f35b6102af6110aa565b6040516102bc9190611d05565b60405180910390f35b7fe29ae391d56380108ce928315a6cca9ba356584f5bc9cd9430d7208954f3a93781565b60046020528060005260406000206000915054906101000a900460ff1681565b81600360008273ffffffffffffffffffffffffffffffffffffffff1673ffffffffffffffffffffffffffffffffffffffff16815260200190815260200160002060000160009054906101000a900473ffffffffffffffffffffffffffffffffffffffff1673ffffffffffffffffffffffffffffffffffffffff163373ffffffffffffffffffffffffffffffffffffffff1614806103f35750600260009054906101000a900473ffffffffffffffffffffffffffffffffffffffff1673ffffffffffffffffffffffffffffffffffffffff163373ffffffffffffffffffffffffffffffffffffffff16145b610432576040517f08c379a000000000000000000000000000000000000000000000000000000000815260040161042990611d27565b60405180910390fd5b600460008373ffffffffffffffffffffffffffffffffffffffff1673ffffffffffffffffffffffffffffffffffffffff16815260200190815260200160002060009054906101000a900460ff166104be576040517f08c379a00000000000000000000000000000000000000000000000000000000081526004016104b590611da7565b60405180910390fd5b81600360008573ffffffffffffffffffffffffffffffffffffffff1673ffffffffffffffffffffffffffffffffffffffff16815260200190815260200160002060000160006101000a81548173ffffffffffffffffffffffffffffffffffffffff021916908373ffffffffffffffffffffffffffffffffffffffff160217905550505050565b600260009054906101000a900473ffffffffffffffffffffffffffffffffffffffff1681565b6040518060e001604052808573ffffffffffffffffffffffffffffffffffffffff168152602001846bffffffffffffffffffffffff16815260200160006bffffffffffffffffffffffff168152602001836bffffffffffffffffffffffff16815260200160006bffffffffffffffffffffffff168152602001828152602001600061ffff16815250600360008773ffffffffffffffffffffffffffffffffffffffff1673ffffffffffffffffffffffffffffffffffffffff16815260200190815260200160002060008201518160000160006101000a81548173ffffffffffffffffffffffffffffffffffffffff021916908373ffffffffffffffffffffffffffffffffffffffff16021790555060208201518160000160146101000a8154816bffffffffffffffffffffffff02191690836bffffffffffffffffffffffff16021790555060408201518160010160006101000a8154816bffffffffffffffffffffffff02191690836bffffffffffffffffffffffff160217905550606082015181600101600c6101000a8154816bffffffffffffffffffffffff02191690836bffffffffffffffffffffffff16021790555060808201518160020160006101000a8154816bffffffffffffffffffffffff02191690836bffffffffffffffffffffffff16021790555060a082015181600301908051906020019061077092919061141d565b5060c08201518160040160006101000a81548161ffff021916908361ffff1602179055509050505050505050565b6040518060400160405280600d81526020017f4752414e5453204d6f64756c650000000000000000000000000000000000000081525081565b60036020528060005260406000206000915090508060000160009054906101000a900473ffffffffffffffffffffffffffffffffffffffff16908060000160149054906101000a90046bffffffffffffffffffffffff16908060010160009054906101000a90046bffffffffffffffffffffffff169080600101600c9054906101000a90046bffffffffffffffffffffffff16908060020160009054906101000a90046bffffffffffffffffffffffff169080600301805461089890612026565b80601f01602080910402602001604051908101604052809291908181526020018280546108c490612026565b80156109115780601f106108e657610100808354040283529160200191610911565b820191906000526020600020905b8154815290600101906020018083116108f457829003601f168201915b5050505050908060040160009054906101000a900461ffff16905087565b6109376114a3565b600360008373ffffffffffffffffffffffffffffffffffffffff1673ffffffffffffffffffffffffffffffffffffffff1681526020019081526020016000206040518060e00160405290816000820160009054906101000a900473ffffffffffffffffffffffffffffffffffffffff1673ffffffffffffffffffffffffffffffffffffffff1673ffffffffffffffffffffffffffffffffffffffff1681526020016000820160149054906101000a90046bffffffffffffffffffffffff166bffffffffffffffffffffffff166bffffffffffffffffffffffff1681526020016001820160009054906101000a90046bffffffffffffffffffffffff166bffffffffffffffffffffffff166bffffffffffffffffffffffff16815260200160018201600c9054906101000a90046bffffffffffffffffffffffff166bffffffffffffffffffffffff166bffffffffffffffffffffffff1681526020016002820160009054906101000a90046bffffffffffffffffffffffff166bffffffffffffffffffffffff166bffffffffffffffffffffffff168152602001600382018054610adf90612026565b80601f0160208091040260200160405190810160405280929190818152602001828054610b0b90612026565b8015610b585780601f10610b2d57610100808354040283529160200191610b58565b820191906000526020600020905b815481529060010190602001808311610b3b57829003601f168201915b505050505081526020016004820160009054906101000a900461ffff1661ffff1661ffff16815250509050919050565b7fe3b859addf4ff702db3c81f356a5115754a64f22dd16b6175f26b4b444aac1ec81565b6000600360008573ffffffffffffffffffffffffffffffffffffffff1673ffffffffffffffffffffffffffffffffffffffff16815260200190815260200160002090508060000160009054906101000a900473ffffffffffffffffffffffffffffffffffffffff1673ffffffffffffffffffffffffffffffffffffffff168273ffffffffffffffffffffffffffffffffffffffff1614610c81576040517f08c379a0000000000000000000000000000000000000000000000000000000008152600401610c7890611dc7565b60405180910390fd5b826bffffffffffffffffffffffff168160020160009054906101000a90046bffffffffffffffffffffffff166bffffffffffffffffffffffff1614610cf457828160020160006101000a8154816bffffffffffffffffffffffff02191690836bffffffffffffffffffffffff1602179055505b8173ffffffffffffffffffffffffffffffffffffffff168160000160009054906101000a900473ffffffffffffffffffffffffffffffffffffffff1673ffffffffffffffffffffffffffffffffffffffff1614610d8f57818160000160006101000a81548173ffffffffffffffffffffffffffffffffffffffff021916908373ffffffffffffffffffffffffffffffffffffffff1602179055505b610d98846110e3565b50505050565b600260009054906101000a900473ffffffffffffffffffffffffffffffffffffffff1673ffffffffffffffffffffffffffffffffffffffff163373ffffffffffffffffffffffffffffffffffffffff1614610e2e576040517f08c379a0000000000000000000000000000000000000000000000000000000008152600401610e2590611d87565b60405180910390fd5b60005b8151811015610ee557600160046000848481518110610e79577f4e487b7100000000000000000000000000000000000000000000000000000000600052603260045260246000fd5b602002602001015173ffffffffffffffffffffffffffffffffffffffff1673ffffffffffffffffffffffffffffffffffffffff16815260200190815260200160002060006101000a81548160ff0219169083151502179055508080610edd90612058565b915050610e31565b5050565b600260009054906101000a900473ffffffffffffffffffffffffffffffffffffffff1673ffffffffffffffffffffffffffffffffffffffff163373ffffffffffffffffffffffffffffffffffffffff1614610f79576040517f08c379a0000000000000000000000000000000000000000000000000000000008152600401610f7090611d87565b60405180910390fd5b600360008273ffffffffffffffffffffffffffffffffffffffff1673ffffffffffffffffffffffffffffffffffffffff168152602001908152602001600020600080820160006101000a81549073ffffffffffffffffffffffffffffffffffffffff02191690556000820160146101000a8154906bffffffffffffffffffffffff02191690556001820160006101000a8154906bffffffffffffffffffffffff021916905560018201600c6101000a8154906bffffffffffffffffffffffff02191690556002820160006101000a8154906bffffffffffffffffffffffff021916905560038201600061106c9190611532565b6004820160006101000a81549061ffff0219169055505050565b60008054906101000a900473ffffffffffffffffffffffffffffffffffffffff1681565b6040518060400160405280600581526020017f302e312e3000000000000000000000000000000000000000000000000000000081525081565b6000600360008373ffffffffffffffffffffffffffffffffffffffff1673ffffffffffffffffffffffffffffffffffffffff1681526020019081526020016000209050600081600101600c9054906101000a90046bffffffffffffffffffffffff168260000160149054906101000a90046bffffffffffffffffffffffff1661116c9190611f05565b9050806bffffffffffffffffffffffff164710156111bf576040517f08c379a00000000000000000000000000000000000000000000000000000000081526004016111b690611d67565b60405180910390fd5b8160000160149054906101000a90046bffffffffffffffffffffffff166bffffffffffffffffffffffff16818360010160009054906101000a90046bffffffffffffffffffffffff166112129190611ec3565b6bffffffffffffffffffffffff161115611261576040517f08c379a000000000000000000000000000000000000000000000000000000000815260040161125890611d47565b60405180910390fd5b60008054906101000a900473ffffffffffffffffffffffffffffffffffffffff1673ffffffffffffffffffffffffffffffffffffffff1663095ea7b333836040518363ffffffff1660e01b81526004016112bc929190611c15565b602060405180830381600087803b1580156112d657600080fd5b505af11580156112ea573d6000803e3d6000fd5b505050506040513d601f19601f8201168201806040525081019061130e9190611850565b5060008054906101000a900473ffffffffffffffffffffffffffffffffffffffff1673ffffffffffffffffffffffffffffffffffffffff166323b872dd3385846040518463ffffffff1660e01b815260040161136c93929190611bde565b602060405180830381600087803b15801561138657600080fd5b505af115801561139a573d6000803e3d6000fd5b505050506040513d601f19601f820116820180604052508101906113be9190611850565b50808260010160008282829054906101000a90046bffffffffffffffffffffffff166113ea9190611ec3565b92506101000a8154816bffffffffffffffffffffffff02191690836bffffffffffffffffffffffff160217905550505050565b82805461142990612026565b90600052602060002090601f01602090048101928261144b5760008555611492565b82601f1061146457805160ff1916838001178555611492565b82800160010185558215611492579182015b82811115611491578251825591602001919060010190611476565b5b50905061149f9190611572565b5090565b6040518060e00160405280600073ffffffffffffffffffffffffffffffffffffffff16815260200160006bffffffffffffffffffffffff16815260200160006bffffffffffffffffffffffff16815260200160006bffffffffffffffffffffffff16815260200160006bffffffffffffffffffffffff16815260200160608152602001600061ffff1681525090565b50805461153e90612026565b6000825580601f10611550575061156f565b601f01602090049060005260206000209081019061156e9190611572565b5b50565b5b8082111561158b576000816000905550600101611573565b5090565b60006115a261159d84611e3a565b611e09565b905080838252602082019050828560208602820111156115c157600080fd5b60005b858110156115f157816115d78882611639565b8452602084019350602083019250506001810190506115c4565b5050509392505050565b600061160e61160984611e66565b611e09565b90508281526020810184848401111561162657600080fd5b611631848285611fe4565b509392505050565b6000813590506116488161216e565b92915050565b600082601f83011261165f57600080fd5b813561166f84826020860161158f565b91505092915050565b60008151905061168781612185565b92915050565b600082601f83011261169e57600080fd5b81356116ae8482602086016115fb565b91505092915050565b6000813590506116c68161219c565b92915050565b6000602082840312156116de57600080fd5b60006116ec84828501611639565b91505092915050565b6000806040838503121561170857600080fd5b600061171685828601611639565b925050602061172785828601611639565b9150509250929050565b600080600080600060a0868803121561174957600080fd5b600061175788828901611639565b955050602061176888828901611639565b9450506040611779888289016116b7565b935050606061178a888289016116b7565b925050608086013567ffffffffffffffff8111156117a757600080fd5b6117b38882890161168d565b9150509295509295909350565b6000806000606084860312156117d557600080fd5b60006117e386828701611639565b93505060206117f4868287016116b7565b925050604061180586828701611639565b9150509250925092565b60006020828403121561182157600080fd5b600082013567ffffffffffffffff81111561183b57600080fd5b6118478482850161164e565b91505092915050565b60006020828403121561186257600080fd5b600061187084828501611678565b91505092915050565b61188281611f36565b82525050565b61189181611f36565b82525050565b6118a081611f48565b82525050565b6118af81611f54565b82525050565b6118be81611fae565b82525050565b60006118cf82611e96565b6118d98185611ea1565b93506118e9818560208601611ff3565b6118f28161215d565b840191505092915050565b600061190882611e96565b6119128185611eb2565b9350611922818560208601611ff3565b61192b8161215d565b840191505092915050565b6000611943603183611eb2565b91507f4e6f7420617574686f72697a65643a206d7573742062652063757272656e742060008301527f64656c6567617465206f72206f776e65720000000000000000000000000000006020830152604082019050919050565b60006119a9601c83611eb2565b91507f5472616e736665722065786365656473206772616e74206c696d6974000000006000830152602082019050919050565b60006119e9602083611eb2565b91507f4e6f7420656e6f7567682066756e647320696e2074686520636f6e74726163746000830152602082019050919050565b6000611a29601d83611eb2565b91507f4e6f7420617574686f72697a65643a206d757374206265206f776e65720000006000830152602082019050919050565b6000611a69601c83611eb2565b91507f4e65772064656c6567617465206973206e6f7420617070726f766564000000006000830152602082019050919050565b6000611aa9600e83611eb2565b91507f4e6f7420617574686f72697a65640000000000000000000000000000000000006000830152602082019050919050565b600060e083016000830151611af46000860182611879565b506020830151611b076020860182611ba5565b506040830151611b1a6040860182611ba5565b506060830151611b2d6060860182611ba5565b506080830151611b406080860182611ba5565b5060a083015184820360a0860152611b5882826118c4565b91505060c0830151611b6d60c0860182611b78565b508091505092915050565b611b8181611f5e565b82525050565b611b9081611f5e565b82525050565b611b9f81611fd2565b82525050565b611bae81611f96565b82525050565b611bbd81611f96565b82525050565b6000602082019050611bd86000830184611888565b92915050565b6000606082019050611bf36000830186611888565b611c006020830185611888565b611c0d6040830184611b96565b949350505050565b6000604082019050611c2a6000830185611888565b611c376020830184611b96565b9392505050565b600060e082019050611c53600083018a611888565b611c606020830189611bb4565b611c6d6040830188611bb4565b611c7a6060830187611bb4565b611c876080830186611bb4565b81810360a0830152611c9981856118fd565b9050611ca860c0830184611b87565b98975050505050505050565b6000602082019050611cc96000830184611897565b92915050565b6000602082019050611ce460008301846118a6565b92915050565b6000602082019050611cff60008301846118b5565b92915050565b60006020820190508181036000830152611d1f81846118fd565b905092915050565b60006020820190508181036000830152611d4081611936565b9050919050565b60006020820190508181036000830152611d608161199c565b9050919050565b60006020820190508181036000830152611d80816119dc565b9050919050565b60006020820190508181036000830152611da081611a1c565b9050919050565b60006020820190508181036000830152611dc081611a5c565b9050919050565b60006020820190508181036000830152611de081611a9c565b9050919050565b60006020820190508181036000830152611e018184611adc565b905092915050565b6000604051905081810181811067ffffffffffffffff82111715611e3057611e2f61212e565b5b8060405250919050565b600067ffffffffffffffff821115611e5557611e5461212e565b5b602082029050602081019050919050565b600067ffffffffffffffff821115611e8157611e8061212e565b5b601f19601f8301169050602081019050919050565b600081519050919050565b600082825260208201905092915050565b600082825260208201905092915050565b6000611ece82611f96565b9150611ed983611f96565b9250826bffffffffffffffffffffffff03821115611efa57611ef96120a1565b5b828201905092915050565b6000611f1082611f96565b9150611f1b83611f96565b925082611f2b57611f2a6120d0565b5b828204905092915050565b6000611f4182611f6c565b9050919050565b60008115159050919050565b6000819050919050565b600061ffff82169050919050565b600073ffffffffffffffffffffffffffffffffffffffff82169050919050565b6000819050919050565b60006bffffffffffffffffffffffff82169050919050565b6000611fb982611fc0565b9050919050565b6000611fcb82611f6c565b9050919050565b6000611fdd82611f96565b9050919050565b82818337600083830152505050565b60005b83811015612011578082015181840152602081019050611ff6565b83811115612020576000848401525b50505050565b6000600282049050600182168061203e57607f821691505b60208210811415612052576120516120ff565b5b50919050565b600061206382611f8c565b91507fffffffffffffffffffffffffffffffffffffffffffffffffffffffffffffffff821415612096576120956120a1565b5b600182019050919050565b7f4e487b7100000000000000000000000000000000000000000000000000000000600052601160045260246000fd5b7f4e487b7100000000000000000000000000000000000000000000000000000000600052601260045260246000fd5b7f4e487b7100000000000000000000000000000000000000000000000000000000600052602260045260246000fd5b7f4e487b7100000000000000000000000000000000000000000000000000000000600052604160045260246000fd5b6000601f19601f8301169050919050565b61217781611f36565b811461218257600080fd5b50565b61218e81611f48565b811461219957600080fd5b50565b6121a581611f96565b81146121b057600080fd5b5056fea26469706673582212200f3363f1c0187471f0d3f3d23921a76f5e8044e8a548792768c6b4f554d37c7a64736f6c63430008000033",
    "devdoc": {
        "kind": "dev",
        "methods": {},
        "version": 1
    },
    "userdoc": {
        "kind": "user",
        "methods": {},
        "version": 1
    },
    "storageLayout": {
        "storage": [
            {
                "astId": 108,
                "contract": "contracts/GrantPaymentModule.sol:GrantPaymentModule",
                "label": "token",
                "offset": 0,
                "slot": "0",
                "type": "t_contract(IERC20)77"
            },
            {
                "astId": 110,
                "contract": "contracts/GrantPaymentModule.sol:GrantPaymentModule",
                "label": "tokenAddress",
                "offset": 0,
                "slot": "1",
                "type": "t_address"
            },
            {
                "astId": 143,
                "contract": "contracts/GrantPaymentModule.sol:GrantPaymentModule",
                "label": "owner",
                "offset": 0,
                "slot": "2",
                "type": "t_address"
            },
            {
                "astId": 148,
                "contract": "contracts/GrantPaymentModule.sol:GrantPaymentModule",
                "label": "grants",
                "offset": 0,
                "slot": "3",
                "type": "t_mapping(t_address,t_struct(Grant)141_storage)"
            },
            {
                "astId": 152,
                "contract": "contracts/GrantPaymentModule.sol:GrantPaymentModule",
                "label": "approvedDelegates",
                "offset": 0,
                "slot": "4",
                "type": "t_mapping(t_address,t_bool)"
            }
        ],
        "types": {
            "t_address": {
                "encoding": "inplace",
                "label": "address",
                "numberOfBytes": "20"
            },
            "t_bool": {
                "encoding": "inplace",
                "label": "bool",
                "numberOfBytes": "1"
            },
            "t_contract(IERC20)77": {
                "encoding": "inplace",
                "label": "contract IERC20",
                "numberOfBytes": "20"
            },
            "t_mapping(t_address,t_bool)": {
                "encoding": "mapping",
                "key": "t_address",
                "label": "mapping(address => bool)",
                "numberOfBytes": "32",
                "value": "t_bool"
            },
            "t_mapping(t_address,t_struct(Grant)141_storage)": {
                "encoding": "mapping",
                "key": "t_address",
                "label": "mapping(address => struct GrantPaymentModule.Grant)",
                "numberOfBytes": "32",
                "value": "t_struct(Grant)141_storage"
            },
            "t_string_storage": {
                "encoding": "bytes",
                "label": "string",
                "numberOfBytes": "32"
            },
            "t_struct(Grant)141_storage": {
                "encoding": "inplace",
                "label": "struct GrantPaymentModule.Grant",
                "members": [
                    {
                        "astId": 128,
                        "contract": "contracts/GrantPaymentModule.sol:GrantPaymentModule",
                        "label": "delegate",
                        "offset": 0,
                        "slot": "0",
                        "type": "t_address"
                    },
                    {
                        "astId": 130,
                        "contract": "contracts/GrantPaymentModule.sol:GrantPaymentModule",
                        "label": "amount",
                        "offset": 20,
                        "slot": "0",
                        "type": "t_uint96"
                    },
                    {
                        "astId": 132,
                        "contract": "contracts/GrantPaymentModule.sol:GrantPaymentModule",
                        "label": "distributedAmount",
                        "offset": 0,
                        "slot": "1",
                        "type": "t_uint96"
                    },
                    {
                        "astId": 134,
                        "contract": "contracts/GrantPaymentModule.sol:GrantPaymentModule",
                        "label": "milestoneAmount",
                        "offset": 12,
                        "slot": "1",
                        "type": "t_uint96"
                    },
                    {
                        "astId": 136,
                        "contract": "contracts/GrantPaymentModule.sol:GrantPaymentModule",
                        "label": "reachedMilestoneAmount",
                        "offset": 0,
                        "slot": "2",
                        "type": "t_uint96"
                    },
                    {
                        "astId": 138,
                        "contract": "contracts/GrantPaymentModule.sol:GrantPaymentModule",
                        "label": "grantRefID",
                        "offset": 0,
                        "slot": "3",
                        "type": "t_string_storage"
                    },
                    {
                        "astId": 140,
                        "contract": "contracts/GrantPaymentModule.sol:GrantPaymentModule",
                        "label": "nonce",
                        "offset": 0,
                        "slot": "4",
                        "type": "t_uint16"
                    }
                ],
                "numberOfBytes": "160"
            },
            "t_uint16": {
                "encoding": "inplace",
                "label": "uint16",
                "numberOfBytes": "2"
            },
            "t_uint96": {
                "encoding": "inplace",
                "label": "uint96",
                "numberOfBytes": "12"
            }
        }
    }
}